{
    "_format": "hh-sol-artifact-1",
    "contractName": "Zapper",
    "sourceName": "contracts/Zapper.sol",
    "abi": [
        {
            "inputs": [
                {
                    "internalType": "address",
                    "name": "_vaultContract",
                    "type": "address"
                },
                {
                    "internalType": "address",
                    "name": "_token1",
                    "type": "address"
                },
                {
                    "internalType": "address",
                    "name": "_token2",
                    "type": "address"
                }
            ],
            "stateMutability": "nonpayable",
            "type": "constructor"
        },
        {
            "inputs": [
                {
                    "internalType": "address",
                    "name": "_tokenA",
                    "type": "address"
                },
                {
                    "internalType": "address",
                    "name": "_tokenB",
                    "type": "address"
                },
                {
                    "internalType": "uint256",
                    "name": "_amountA",
                    "type": "uint256"
                },
                {
                    "internalType": "uint256",
                    "name": "_amountB",
                    "type": "uint256"
                }
            ],
            "name": "addLiquidity",
            "outputs": [
                {
                    "internalType": "uint256",
                    "name": "",
                    "type": "uint256"
                }
            ],
            "stateMutability": "nonpayable",
            "type": "function"
        },
        {
            "inputs": [
                {
                    "internalType": "address",
                    "name": "_user",
                    "type": "address"
                }
            ],
            "name": "getAmountOfBalanceOfUser",
            "outputs": [
                {
                    "internalType": "uint256",
                    "name": "balanceOfUser",
                    "type": "uint256"
                }
            ],
            "stateMutability": "view",
            "type": "function"
        },
        {
            "inputs": [
                {
                    "internalType": "address",
                    "name": "_tokenOut",
                    "type": "address"
                }
            ],
            "name": "getPathOfMaticAndToken",
            "outputs": [
                {
                    "internalType": "address[]",
                    "name": "",
                    "type": "address[]"
                }
            ],
            "stateMutability": "pure",
            "type": "function"
        },
        {
            "inputs": [
                {
                    "internalType": "address",
                    "name": "_tokenExtra",
                    "type": "address"
                },
                {
                    "internalType": "bool",
                    "name": "_changeFromWMaticToOtherToken",
                    "type": "bool"
                }
            ],
            "name": "getPathOfWMaticAndToken",
            "outputs": [
                {
                    "internalType": "address[]",
                    "name": "",
                    "type": "address[]"
                }
            ],
            "stateMutability": "pure",
            "type": "function"
        },
        {
            "inputs": [],
            "name": "investMaticInVaultDirectly",
            "outputs": [],
            "stateMutability": "payable",
            "type": "function"
        },
        {
            "inputs": [
                {
                    "internalType": "uint256",
                    "name": "_wMaticAmount",
                    "type": "uint256"
                }
            ],
            "name": "investWMaticInVaultDirectly",
            "outputs": [],
            "stateMutability": "payable",
            "type": "function"
        },
        {
            "inputs": [],
            "name": "liquidityToken",
            "outputs": [
                {
                    "internalType": "contract IERC20",
                    "name": "",
                    "type": "address"
                }
            ],
            "stateMutability": "view",
            "type": "function"
        },
        {
            "inputs": [],
            "name": "vaultContract",
            "outputs": [
                {
                    "internalType": "contract IVault",
                    "name": "",
                    "type": "address"
                }
            ],
            "stateMutability": "view",
            "type": "function"
        },
        {
            "inputs": [],
            "name": "withdraw",
            "outputs": [],
            "stateMutability": "nonpayable",
            "type": "function"
        }
    ],
    "bytecode": "0x60806040523480156200001157600080fd5b5060405162001e8d38038062001e8d8339810160408190526200003491620002e7565b600380546001600160a01b0319166001600160a01b03851690811790915560408051631f1fcd5160e01b81529051631f1fcd5191600480820192602092909190829003018186803b1580156200008957600080fd5b505afa1580156200009e573d6000803e3d6000fd5b505050506040513d601f19601f82011682018060405250810190620000c49190620002c0565b600460006101000a8154816001600160a01b0302191690836001600160a01b03160217905550731b02da8cb0d097eb8d57a175b88c7d8b479975066001600160a01b031663c45a01556040518163ffffffff1660e01b815260040160206040518083038186803b1580156200013857600080fd5b505afa1580156200014d573d6000803e3d6000fd5b505050506040513d601f19601f82011682018060405250810190620001739190620002c0565b600280546001600160a01b039283166001600160a01b031991821681179092556000805486851690831681179091556001805494861694909216841790915560405163e6a4390560e01b8152600481019190915260248101929092529063e6a439059060440160206040518083038186803b158015620001f257600080fd5b505afa15801562000207573d6000803e3d6000fd5b505050506040513d601f19601f820116820180604052508101906200022d9190620002c0565b6004546001600160a01b03908116911614620002b7576040805162461bcd60e51b81526020600482015260248101919091527f546865206c70206f6620746865203220746f6b656e73206d757374206265207460448201527f68652073616d65207468617420746865206c70206f6620746865207661756c74606482015260840160405180910390fd5b50505062000354565b600060208284031215620002d357600080fd5b8151620002e0816200033b565b9392505050565b600080600060608486031215620002fd57600080fd5b83516200030a816200033b565b60208501519093506200031d816200033b565b604085015190925062000330816200033b565b809150509250925092565b6001600160a01b03811681146200035157600080fd5b50565b611b2980620003646000396000f3fe6080604052600436106100865760003560e01c8063750c49b011610059578063750c49b014610107578063914473f914610134578063ba05d55314610154578063cf6c62ea14610198578063e47cec6e146101b857600080fd5b80632274346b1461008b5780633ccfd60b146100c857806342c419a2146100df57806343cd8f7e146100e7575b600080fd5b34801561009757600080fd5b506003546100ab906001600160a01b031681565b6040516001600160a01b0390911681526020015b60405180910390f35b3480156100d457600080fd5b506100dd6101cb565b005b6100dd610601565b3480156100f357600080fd5b506004546100ab906001600160a01b031681565b34801561011357600080fd5b5061012761012236600461179f565b610889565b6040516100bf919061199b565b34801561014057600080fd5b5061012761014f36600461171f565b6109b8565b34801561016057600080fd5b5061018a61016f36600461171f565b6001600160a01b031660009081526005602052604090205490565b6040519081526020016100bf565b3480156101a457600080fd5b5061018a6101b3366004611759565b610a57565b6100dd6101c63660046118ba565b610efe565b336000908152600560205260409020546102485760405162461bcd60e51b815260206004820152603360248201527f54686520757365722068617320746f2068617665206d6f6e657920696e7665736044820152721d1959081a5b881d1a194818dbdb9d1c9858dd606a1b60648201526084015b60405180910390fd5b3360009081526005602052604080822080549290556003549051632e1a7d4d60e01b8152600481018390526001600160a01b0390911690632e1a7d4d90602401600060405180830381600087803b1580156102a257600080fd5b505af11580156102b6573d6000803e3d6000fd5b5050600480546040516370a0823160e01b81523092810192909252600093506001600160a01b031691506370a082319060240160206040518083038186803b15801561030157600080fd5b505afa158015610315573d6000803e3d6000fd5b505050506040513d601f19601f8201168201806040525081019061033991906118d3565b600080546001549293509091829161035e916001600160a01b0391821691168561120b565b600080549294509092509061037c906001600160a01b031682610889565b600154909150600090610398906001600160a01b031682610889565b60005460405163095ea7b360e01b81529192506001600160a01b03169063095ea7b3906103df90731b02da8cb0d097eb8d57a175b88c7d8b47997506908890600401611982565b602060405180830381600087803b1580156103f957600080fd5b505af115801561040d573d6000803e3d6000fd5b505050506040513d601f19601f82011682018060405250810190610431919061189d565b5060015460405163095ea7b360e01b81526001600160a01b039091169063095ea7b39061047890731b02da8cb0d097eb8d57a175b88c7d8b47997506908790600401611982565b602060405180830381600087803b15801561049257600080fd5b505af11580156104a6573d6000803e3d6000fd5b505050506040513d601f19601f820116820180604052508101906104ca919061189d565b506040516338ed173960e01b8152731b02da8cb0d097eb8d57a175b88c7d8b47997506906338ed17399061050b9087906001908790339042906004016119e3565b600060405180830381600087803b15801561052557600080fd5b505af1158015610539573d6000803e3d6000fd5b505050506040513d6000823e601f3d908101601f1916820160405261056191908101906117d8565b506040516338ed173960e01b8152731b02da8cb0d097eb8d57a175b88c7d8b47997506906338ed1739906105a29086906001908690339042906004016119e3565b600060405180830381600087803b1580156105bc57600080fd5b505af11580156105d0573d6000803e3d6000fd5b505050506040513d6000823e601f3d908101601f191682016040526105f891908101906117d8565b50505050505050565b60408051808201909152600080546001600160a01b0390811683526001541660208301529061063090346113f8565b600080546001549293509091610662916001600160a01b03908116911684845b60200201518560016020020151610a57565b6003546040516370a0823160e01b81523060048201529192506000916001600160a01b03909116906370a082319060240160206040518083038186803b1580156106ab57600080fd5b505afa1580156106bf573d6000803e3d6000fd5b505050506040513d601f19601f820116820180604052508101906106e391906118d3565b6004805460035460405163095ea7b360e01b81529394506001600160a01b039182169363095ea7b39361071c9390921691879101611982565b602060405180830381600087803b15801561073657600080fd5b505af115801561074a573d6000803e3d6000fd5b505050506040513d601f19601f8201168201806040525081019061076e919061189d565b5060035460405163b6b55f2560e01b8152600481018490526001600160a01b039091169063b6b55f2590602401600060405180830381600087803b1580156107b557600080fd5b505af11580156107c9573d6000803e3d6000fd5b50506003546040516370a0823160e01b8152306004820152600093506001600160a01b0390911691506370a082319060240160206040518083038186803b15801561081357600080fd5b505afa158015610827573d6000803e3d6000fd5b505050506040513d601f19601f8201168201806040525081019061084b91906118d3565b905060006108598383611a59565b3360009081526005602052604081208054929350839290919061087d908490611a1f565b90915550505050505050565b604080516002808252606080830184529283929190602083019080368337019050509050821561093457730d500b1d8e8ef31e21c99d1db9a6444d3adf1270816000815181106108db576108db611aa1565b60200260200101906001600160a01b031690816001600160a01b031681525050838160018151811061090f5761090f611aa1565b60200260200101906001600160a01b031690816001600160a01b0316815250506109b1565b838160008151811061094857610948611aa1565b60200260200101906001600160a01b031690816001600160a01b031681525050730d500b1d8e8ef31e21c99d1db9a6444d3adf12708160018151811061099057610990611aa1565b60200260200101906001600160a01b031690816001600160a01b0316815250505b9392505050565b60408051600280825260608083018452926000929190602083019080368337019050509050730d500b1d8e8ef31e21c99d1db9a6444d3adf127081600081518110610a0557610a05611aa1565b60200260200101906001600160a01b031690816001600160a01b0316815250508281600181518110610a3957610a39611aa1565b6001600160a01b039092166020928302919091019091015292915050565b60405163095ea7b360e01b81526000906001600160a01b0386169063095ea7b390610a9c90731b02da8cb0d097eb8d57a175b88c7d8b47997506908790600401611982565b602060405180830381600087803b158015610ab657600080fd5b505af1158015610aca573d6000803e3d6000fd5b505050506040513d601f19601f82011682018060405250810190610aee919061189d565b5060405163095ea7b360e01b81526001600160a01b0385169063095ea7b390610b3190731b02da8cb0d097eb8d57a175b88c7d8b47997506908690600401611982565b602060405180830381600087803b158015610b4b57600080fd5b505af1158015610b5f573d6000803e3d6000fd5b505050506040513d601f19601f82011682018060405250810190610b83919061189d565b5060405162e8e33760e81b81526001600160a01b03808716600483015285166024820152604481018490526064810183905260016084820181905260a48201523060c48201524260e4820152600090731b02da8cb0d097eb8d57a175b88c7d8b479975069063e8e337009061010401606060405180830381600087803b158015610c0c57600080fd5b505af1158015610c20573d6000803e3d6000fd5b505050506040513d601f19601f82011682018060405250810190610c449190611910565b6040516370a0823160e01b8152306004820152909350600092506001600160a01b03891691506370a082319060240160206040518083038186803b158015610c8b57600080fd5b505afa158015610c9f573d6000803e3d6000fd5b505050506040513d601f19601f82011682018060405250810190610cc391906118d3565b6040516370a0823160e01b81523060048201529091506000906001600160a01b038816906370a082319060240160206040518083038186803b158015610d0857600080fd5b505afa158015610d1c573d6000803e3d6000fd5b505050506040513d601f19601f82011682018060405250810190610d4091906118d3565b90508115610dca5760405163a9059cbb60e01b81526001600160a01b0389169063a9059cbb90610d769033908690600401611982565b602060405180830381600087803b158015610d9057600080fd5b505af1158015610da4573d6000803e3d6000fd5b505050506040513d601f19601f82011682018060405250810190610dc8919061189d565b505b8015610e525760405163a9059cbb60e01b81526001600160a01b0388169063a9059cbb90610dfe9033908590600401611982565b602060405180830381600087803b158015610e1857600080fd5b505af1158015610e2c573d6000803e3d6000fd5b505050506040513d601f19601f82011682018060405250810190610e50919061189d565b505b4715610ef257604051600090339047908381818185875af1925050503d8060008114610e9a576040519150601f19603f3d011682016040523d82523d6000602084013e610e9f565b606091505b5050905080610ef05760405162461bcd60e51b815260206004820152601860248201527f4c6971756964697479207265666f756e64206661696c65640000000000000000604482015260640161023f565b505b50909695505050505050565b6040516323b872dd60e01b815233600482015230602482015260448101829052730d500b1d8e8ef31e21c99d1db9a6444d3adf1270906323b872dd90606401602060405180830381600087803b158015610f5757600080fd5b505af1158015610f6b573d6000803e3d6000fd5b505050506040513d601f19601f82011682018060405250810190610f8f919061189d565b5060408051808201909152600080546001600160a01b03908116835260015416602083015290610fbf90836115d1565b600080546001549293509091610fe3916001600160a01b0390811691168484610650565b6003546040516370a0823160e01b81523060048201529192506000916001600160a01b03909116906370a082319060240160206040518083038186803b15801561102c57600080fd5b505afa158015611040573d6000803e3d6000fd5b505050506040513d601f19601f8201168201806040525081019061106491906118d3565b6004805460035460405163095ea7b360e01b81529394506001600160a01b039182169363095ea7b39361109d9390921691879101611982565b602060405180830381600087803b1580156110b757600080fd5b505af11580156110cb573d6000803e3d6000fd5b505050506040513d601f19601f820116820180604052508101906110ef919061189d565b5060035460405163b6b55f2560e01b8152600481018490526001600160a01b039091169063b6b55f2590602401600060405180830381600087803b15801561113657600080fd5b505af115801561114a573d6000803e3d6000fd5b50506003546040516370a0823160e01b8152306004820152600093506001600160a01b0390911691506370a082319060240160206040518083038186803b15801561119457600080fd5b505afa1580156111a8573d6000803e3d6000fd5b505050506040513d601f19601f820116820180604052508101906111cc91906118d3565b905060006111da8383611a59565b336000908152600560205260408120805492935083929091906111fe908490611a1f565b9091555050505050505050565b60025460405163e6a4390560e01b81526001600160a01b0385811660048301528481166024830152600092839283929091169063e6a439059060440160206040518083038186803b15801561125f57600080fd5b505afa158015611273573d6000803e3d6000fd5b505050506040513d601f19601f82011682018060405250810190611297919061173c565b60405163095ea7b360e01b81529091506001600160a01b0382169063095ea7b3906112dc90731b02da8cb0d097eb8d57a175b88c7d8b47997506908890600401611982565b602060405180830381600087803b1580156112f657600080fd5b505af115801561130a573d6000803e3d6000fd5b505050506040513d601f19601f8201168201806040525081019061132e919061189d565b50604051635d5155ef60e11b81526001600160a01b038088166004830152861660248201526044810185905260016064820181905260848201523060a48201524260c48201526000908190731b02da8cb0d097eb8d57a175b88c7d8b479975069063baa2abde9060e4016040805180830381600087803b1580156113b157600080fd5b505af11580156113c5573d6000803e3d6000fd5b505050506040513d601f19601f820116820180604052508101906113e991906118ec565b90999098509650505050505050565b611400611701565b60405163095ea7b360e01b8152730d500b1d8e8ef31e21c99d1db9a6444d3adf12709063095ea7b39061144d90731b02da8cb0d097eb8d57a175b88c7d8b47997506908690600401611982565b602060405180830381600087803b15801561146757600080fd5b505af115801561147b573d6000803e3d6000fd5b505050506040513d601f19601f8201168201806040525081019061149f919061189d565b5060606114aa611701565b60006114b7600286611a37565b905060005b60028110156115c65760006114e68883600281106114dc576114dc611aa1565b60200201516109b8565b604051637ff36ab560e01b8152909150731b02da8cb0d097eb8d57a175b88c7d8b4799750690637ff36ab5908590611529906001908690309042906004016119ae565b6000604051808303818588803b15801561154257600080fd5b505af1158015611556573d6000803e3d6000fd5b50505050506040513d6000823e601f3d908101601f1916820160405261157f91908101906117d8565b94508460018151811061159457611594611aa1565b60200260200101518483600281106115ae576115ae611aa1565b602002015250806115be81611a70565b9150506114bc565b509095945050505050565b6115d9611701565b60606115e3611701565b60006115f0600286611a37565b905060005b60028110156115c657600061162188836002811061161557611615611aa1565b60200201516001610889565b6040516338ed173960e01b8152909150731b02da8cb0d097eb8d57a175b88c7d8b47997506906338ed1739906116649086906001908690309042906004016119e3565b600060405180830381600087803b15801561167e57600080fd5b505af1158015611692573d6000803e3d6000fd5b505050506040513d6000823e601f3d908101601f191682016040526116ba91908101906117d8565b9450846001815181106116cf576116cf611aa1565b60200260200101518483600281106116e9576116e9611aa1565b602002015250806116f981611a70565b9150506115f5565b60405180604001604052806002906020820280368337509192915050565b60006020828403121561173157600080fd5b81356109b181611acd565b60006020828403121561174e57600080fd5b81516109b181611acd565b6000806000806080858703121561176f57600080fd5b843561177a81611acd565b9350602085013561178a81611acd565b93969395505050506040820135916060013590565b600080604083850312156117b257600080fd5b82356117bd81611acd565b915060208301356117cd81611ae5565b809150509250929050565b600060208083850312156117eb57600080fd5b825167ffffffffffffffff8082111561180357600080fd5b818501915085601f83011261181757600080fd5b81518181111561182957611829611ab7565b8060051b604051601f19603f8301168101818110858211171561184e5761184e611ab7565b604052828152858101935084860182860187018a101561186d57600080fd5b600095505b83861015611890578051855260019590950194938601938601611872565b5098975050505050505050565b6000602082840312156118af57600080fd5b81516109b181611ae5565b6000602082840312156118cc57600080fd5b5035919050565b6000602082840312156118e557600080fd5b5051919050565b600080604083850312156118ff57600080fd5b505080516020909101519092909150565b60008060006060848603121561192557600080fd5b8351925060208401519150604084015190509250925092565b600081518084526020808501945080840160005b838110156119775781516001600160a01b031687529582019590820190600101611952565b509495945050505050565b6001600160a01b03929092168252602082015260400190565b6020815260006109b1602083018461193e565b8481526080602082015260006119c7608083018661193e565b6001600160a01b03949094166040830152506060015292915050565b85815284602082015260a060408201526000611a0260a083018661193e565b6001600160a01b0394909416606083015250608001529392505050565b60008219821115611a3257611a32611a8b565b500190565b600082611a5457634e487b7160e01b600052601260045260246000fd5b500490565b600082821015611a6b57611a6b611a8b565b500390565b6000600019821415611a8457611a84611a8b565b5060010190565b634e487b7160e01b600052601160045260246000fd5b634e487b7160e01b600052603260045260246000fd5b634e487b7160e01b600052604160045260246000fd5b6001600160a01b0381168114611ae257600080fd5b50565b8015158114611ae257600080fdfea2646970667358221220cd1ddf6847ab59de89c5800728a67783b29369abe79afb85f5cb6a04e12d082764736f6c63430008070033",
    "linkReferences": {},
    "deployedLinkReferences": {}
}